{
  "_format": "hh-sol-artifact-1",
  "contractName": "SKKMService",
  "sourceName": "contracts/SKKMService.sol",
  "abi": [
    {
      "inputs": [
        {
          "internalType": "address",
          "name": "_nftAddress",
          "type": "address"
        }
      ],
      "stateMutability": "nonpayable",
      "type": "constructor"
    },
    {
      "inputs": [
        {
          "internalType": "uint256",
          "name": "",
          "type": "uint256"
        }
      ],
      "name": "SKKM_requests_history",
      "outputs": [
        {
          "internalType": "address",
          "name": "studentAddress",
          "type": "address"
        },
        {
          "internalType": "string",
          "name": "studentName",
          "type": "string"
        },
        {
          "internalType": "string",
          "name": "NIM",
          "type": "string"
        },
        {
          "internalType": "string",
          "name": "namaKegiatan",
          "type": "string"
        },
        {
          "internalType": "string",
          "name": "deskripsiKegiatan",
          "type": "string"
        },
        {
          "internalType": "enum SKKMService.SKKM",
          "name": "jenisSKKM",
          "type": "uint8"
        },
        {
          "internalType": "bool",
          "name": "approved",
          "type": "bool"
        }
      ],
      "stateMutability": "view",
      "type": "function"
    },
    {
      "inputs": [
        {
          "internalType": "uint256",
          "name": "",
          "type": "uint256"
        }
      ],
      "name": "SKKM_requests_list",
      "outputs": [
        {
          "internalType": "address",
          "name": "studentAddress",
          "type": "address"
        },
        {
          "internalType": "string",
          "name": "studentName",
          "type": "string"
        },
        {
          "internalType": "string",
          "name": "NIM",
          "type": "string"
        },
        {
          "internalType": "string",
          "name": "namaKegiatan",
          "type": "string"
        },
        {
          "internalType": "string",
          "name": "deskripsiKegiatan",
          "type": "string"
        },
        {
          "internalType": "enum SKKMService.SKKM",
          "name": "jenisSKKM",
          "type": "uint8"
        }
      ],
      "stateMutability": "view",
      "type": "function"
    },
    {
      "inputs": [
        {
          "internalType": "uint256",
          "name": "_index",
          "type": "uint256"
        },
        {
          "internalType": "bool",
          "name": "_approved",
          "type": "bool"
        },
        {
          "internalType": "string",
          "name": "_metadataURL",
          "type": "string"
        }
      ],
      "name": "approveSKKM",
      "outputs": [],
      "stateMutability": "nonpayable",
      "type": "function"
    },
    {
      "inputs": [],
      "name": "metadataURL",
      "outputs": [
        {
          "internalType": "string",
          "name": "",
          "type": "string"
        }
      ],
      "stateMutability": "view",
      "type": "function"
    },
    {
      "inputs": [],
      "name": "nftAddress",
      "outputs": [
        {
          "internalType": "address",
          "name": "",
          "type": "address"
        }
      ],
      "stateMutability": "view",
      "type": "function"
    },
    {
      "inputs": [],
      "name": "owner",
      "outputs": [
        {
          "internalType": "address",
          "name": "",
          "type": "address"
        }
      ],
      "stateMutability": "view",
      "type": "function"
    },
    {
      "inputs": [
        {
          "internalType": "string",
          "name": "_studentName",
          "type": "string"
        },
        {
          "internalType": "string",
          "name": "_NIM",
          "type": "string"
        },
        {
          "internalType": "string",
          "name": "_namaKegiatan",
          "type": "string"
        },
        {
          "internalType": "string",
          "name": "_deskripsiKegiatan",
          "type": "string"
        },
        {
          "internalType": "enum SKKMService.SKKM",
          "name": "_jenisSKKM",
          "type": "uint8"
        }
      ],
      "name": "requestSKKM",
      "outputs": [
        {
          "internalType": "string",
          "name": "message",
          "type": "string"
        }
      ],
      "stateMutability": "nonpayable",
      "type": "function"
    }
  ],
  "bytecode": "0x60806040523480156200001157600080fd5b50604051620021fa380380620021fa8339818101604052810190620000379190620000d6565b336000806101000a81548173ffffffffffffffffffffffffffffffffffffffff021916908373ffffffffffffffffffffffffffffffffffffffff16021790555080600160006101000a81548173ffffffffffffffffffffffffffffffffffffffff021916908373ffffffffffffffffffffffffffffffffffffffff1602179055505062000150565b600081519050620000d08162000136565b92915050565b600060208284031215620000e957600080fd5b6000620000f984828501620000bf565b91505092915050565b60006200010f8262000116565b9050919050565b600073ffffffffffffffffffffffffffffffffffffffff82169050919050565b620001418162000102565b81146200014d57600080fd5b50565b61209a80620001606000396000f3fe608060405234801561001057600080fd5b506004361061007d5760003560e01c80635bf8633a1161005b5780635bf8633a146100f15780638da5cb5b1461010f578063c42616a51461012d578063eb30cdf5146101635761007d565b80630eefa83c146100825780632dcc8c661461009e57806359c4219e146100bc575b600080fd5b61009c60048036038101906100979190611a35565b610193565b005b6100a6610d6c565b6040516100b39190611c95565b60405180910390f35b6100d660048036038101906100d191906119e3565b610dfa565b6040516100e896959493929190611b8d565b60405180910390f35b6100f9611093565b6040516101069190611b42565b60405180910390f35b6101176110b9565b6040516101249190611b42565b60405180910390f35b610147600480360381019061014291906119e3565b6110dd565b60405161015a9796959493929190611c0a565b60405180910390f35b61017d6004803603810190610178919061190c565b611389565b60405161018a9190611c95565b60405180910390f35b60008054906101000a900473ffffffffffffffffffffffffffffffffffffffff1673ffffffffffffffffffffffffffffffffffffffff163373ffffffffffffffffffffffffffffffffffffffff1614610221576040517f08c379a000000000000000000000000000000000000000000000000000000000815260040161021890611cb7565b60405180910390fd5b6000600160009054906101000a900473ffffffffffffffffffffffffffffffffffffffff1690506102506115cf565b6003858154811061028a577f4e487b7100000000000000000000000000000000000000000000000000000000600052603260045260246000fd5b906000526020600020906006020160000160009054906101000a900473ffffffffffffffffffffffffffffffffffffffff16816000019073ffffffffffffffffffffffffffffffffffffffff16908173ffffffffffffffffffffffffffffffffffffffff16815250506003858154811061032d577f4e487b7100000000000000000000000000000000000000000000000000000000600052603260045260246000fd5b9060005260206000209060060201600101805461034990611e8d565b80601f016020809104026020016040519081016040528092919081815260200182805461037590611e8d565b80156103c25780601f10610397576101008083540402835291602001916103c2565b820191906000526020600020905b8154815290600101906020018083116103a557829003601f168201915b5050505050816020018190525060038581548110610409577f4e487b7100000000000000000000000000000000000000000000000000000000600052603260045260246000fd5b9060005260206000209060060201600201805461042590611e8d565b80601f016020809104026020016040519081016040528092919081815260200182805461045190611e8d565b801561049e5780601f106104735761010080835404028352916020019161049e565b820191906000526020600020905b81548152906001019060200180831161048157829003601f168201915b50505050508160400181905250600385815481106104e5577f4e487b7100000000000000000000000000000000000000000000000000000000600052603260045260246000fd5b9060005260206000209060060201600301805461050190611e8d565b80601f016020809104026020016040519081016040528092919081815260200182805461052d90611e8d565b801561057a5780601f1061054f5761010080835404028352916020019161057a565b820191906000526020600020905b81548152906001019060200180831161055d57829003601f168201915b50505050508160600181905250600385815481106105c1577f4e487b7100000000000000000000000000000000000000000000000000000000600052603260045260246000fd5b906000526020600020906006020160040180546105dd90611e8d565b80601f016020809104026020016040519081016040528092919081815260200182805461060990611e8d565b80156106565780601f1061062b57610100808354040283529160200191610656565b820191906000526020600020905b81548152906001019060200180831161063957829003601f168201915b505050505081608001819052506003858154811061069d577f4e487b7100000000000000000000000000000000000000000000000000000000600052603260045260246000fd5b906000526020600020906006020160050160009054906101000a900460ff168160a0019060038111156106f9577f4e487b7100000000000000000000000000000000000000000000000000000000600052602160045260246000fd5b90816003811115610733577f4e487b7100000000000000000000000000000000000000000000000000000000600052602160045260246000fd5b81525050838160c0019015159081151581525050600481908060018154018082558091505060019003906000526020600020906006020160009091909190915060008201518160000160006101000a81548173ffffffffffffffffffffffffffffffffffffffff021916908373ffffffffffffffffffffffffffffffffffffffff16021790555060208201518160010190805190602001906107d692919061165c565b5060408201518160020190805190602001906107f392919061165c565b50606082015181600301908051906020019061081092919061165c565b50608082015181600401908051906020019061082d92919061165c565b5060a08201518160050160006101000a81548160ff0219169083600381111561087f577f4e487b7100000000000000000000000000000000000000000000000000000000600052602160045260246000fd5b021790555060c08201518160050160016101000a81548160ff021916908315150217905550505083156109a6578173ffffffffffffffffffffffffffffffffffffffff1663eacabe1460038781548110610902577f4e487b7100000000000000000000000000000000000000000000000000000000600052603260045260246000fd5b906000526020600020906006020160000160009054906101000a900473ffffffffffffffffffffffffffffffffffffffff16856040518363ffffffff1660e01b8152600401610952929190611b5d565b602060405180830381600087803b15801561096c57600080fd5b505af1158015610980573d6000803e3d6000fd5b505050506040513d601f19601f820116820180604052508101906109a49190611a0c565b505b60008590505b60016003805490506109be9190611daa565b811015610bc15760036001826109d49190611d54565b81548110610a0b577f4e487b7100000000000000000000000000000000000000000000000000000000600052603260045260246000fd5b906000526020600020906006020160038281548110610a53577f4e487b7100000000000000000000000000000000000000000000000000000000600052603260045260246000fd5b90600052602060002090600602016000820160009054906101000a900473ffffffffffffffffffffffffffffffffffffffff168160000160006101000a81548173ffffffffffffffffffffffffffffffffffffffff021916908373ffffffffffffffffffffffffffffffffffffffff1602179055506001820181600101908054610adc90611e8d565b610ae79291906116e2565b506002820181600201908054610afc90611e8d565b610b079291906116e2565b506003820181600301908054610b1c90611e8d565b610b279291906116e2565b506004820181600401908054610b3c90611e8d565b610b479291906116e2565b506005820160009054906101000a900460ff168160050160006101000a81548160ff02191690836003811115610ba6577f4e487b7100000000000000000000000000000000000000000000000000000000600052602160045260246000fd5b02179055509050508080610bb990611ebf565b9150506109ac565b5060036001600380549050610bd69190611daa565b81548110610c0d577f4e487b7100000000000000000000000000000000000000000000000000000000600052603260045260246000fd5b9060005260206000209060060201600080820160006101000a81549073ffffffffffffffffffffffffffffffffffffffff0219169055600182016000610c53919061176f565b600282016000610c63919061176f565b600382016000610c73919061176f565b600482016000610c83919061176f565b6005820160006101000a81549060ff021916905550506003805480610cd1577f4e487b7100000000000000000000000000000000000000000000000000000000600052603160045260246000fd5b6001900381819060005260206000209060060201600080820160006101000a81549073ffffffffffffffffffffffffffffffffffffffff0219169055600182016000610d1d919061176f565b600282016000610d2d919061176f565b600382016000610d3d919061176f565b600482016000610d4d919061176f565b6005820160006101000a81549060ff0219169055505090555050505050565b60028054610d7990611e8d565b80601f0160208091040260200160405190810160405280929190818152602001828054610da590611e8d565b8015610df25780601f10610dc757610100808354040283529160200191610df2565b820191906000526020600020905b815481529060010190602001808311610dd557829003601f168201915b505050505081565b60038181548110610e0a57600080fd5b90600052602060002090600602016000915090508060000160009054906101000a900473ffffffffffffffffffffffffffffffffffffffff1690806001018054610e5390611e8d565b80601f0160208091040260200160405190810160405280929190818152602001828054610e7f90611e8d565b8015610ecc5780601f10610ea157610100808354040283529160200191610ecc565b820191906000526020600020905b815481529060010190602001808311610eaf57829003601f168201915b505050505090806002018054610ee190611e8d565b80601f0160208091040260200160405190810160405280929190818152602001828054610f0d90611e8d565b8015610f5a5780601f10610f2f57610100808354040283529160200191610f5a565b820191906000526020600020905b815481529060010190602001808311610f3d57829003601f168201915b505050505090806003018054610f6f90611e8d565b80601f0160208091040260200160405190810160405280929190818152602001828054610f9b90611e8d565b8015610fe85780601f10610fbd57610100808354040283529160200191610fe8565b820191906000526020600020905b815481529060010190602001808311610fcb57829003601f168201915b505050505090806004018054610ffd90611e8d565b80601f016020809104026020016040519081016040528092919081815260200182805461102990611e8d565b80156110765780601f1061104b57610100808354040283529160200191611076565b820191906000526020600020905b81548152906001019060200180831161105957829003601f168201915b5050505050908060050160009054906101000a900460ff16905086565b600160009054906101000a900473ffffffffffffffffffffffffffffffffffffffff1681565b60008054906101000a900473ffffffffffffffffffffffffffffffffffffffff1681565b600481815481106110ed57600080fd5b90600052602060002090600602016000915090508060000160009054906101000a900473ffffffffffffffffffffffffffffffffffffffff169080600101805461113690611e8d565b80601f016020809104026020016040519081016040528092919081815260200182805461116290611e8d565b80156111af5780601f10611184576101008083540402835291602001916111af565b820191906000526020600020905b81548152906001019060200180831161119257829003601f168201915b5050505050908060020180546111c490611e8d565b80601f01602080910402602001604051908101604052809291908181526020018280546111f090611e8d565b801561123d5780601f106112125761010080835404028352916020019161123d565b820191906000526020600020905b81548152906001019060200180831161122057829003601f168201915b50505050509080600301805461125290611e8d565b80601f016020809104026020016040519081016040528092919081815260200182805461127e90611e8d565b80156112cb5780601f106112a0576101008083540402835291602001916112cb565b820191906000526020600020905b8154815290600101906020018083116112ae57829003601f168201915b5050505050908060040180546112e090611e8d565b80601f016020809104026020016040519081016040528092919081815260200182805461130c90611e8d565b80156113595780601f1061132e57610100808354040283529160200191611359565b820191906000526020600020905b81548152906001019060200180831161133c57829003601f168201915b5050505050908060050160009054906101000a900460ff16908060050160019054906101000a900460ff16905087565b60606113936117af565b33816000019073ffffffffffffffffffffffffffffffffffffffff16908173ffffffffffffffffffffffffffffffffffffffff1681525050868160200181905250858160400181905250848160600181905250838160800181905250828160a00190600381111561142d577f4e487b7100000000000000000000000000000000000000000000000000000000600052602160045260246000fd5b90816003811115611467577f4e487b7100000000000000000000000000000000000000000000000000000000600052602160045260246000fd5b81525050600381908060018154018082558091505060019003906000526020600020906006020160009091909190915060008201518160000160006101000a81548173ffffffffffffffffffffffffffffffffffffffff021916908373ffffffffffffffffffffffffffffffffffffffff16021790555060208201518160010190805190602001906114fa92919061165c565b50604082015181600201908051906020019061151792919061165c565b50606082015181600301908051906020019061153492919061165c565b50608082015181600401908051906020019061155192919061165c565b5060a08201518160050160006101000a81548160ff021916908360038111156115a3577f4e487b7100000000000000000000000000000000000000000000000000000000600052602160045260246000fd5b021790555050506040518060600160405280603d8152602001612028603d913991505095945050505050565b6040518060e00160405280600073ffffffffffffffffffffffffffffffffffffffff168152602001606081526020016060815260200160608152602001606081526020016000600381111561164d577f4e487b7100000000000000000000000000000000000000000000000000000000600052602160045260246000fd5b81526020016000151581525090565b82805461166890611e8d565b90600052602060002090601f01602090048101928261168a57600085556116d1565b82601f106116a357805160ff19168380011785556116d1565b828001600101855582156116d1579182015b828111156116d05782518255916020019190600101906116b5565b5b5090506116de9190611833565b5090565b8280546116ee90611e8d565b90600052602060002090601f016020900481019282611710576000855561175e565b82601f10611721578054855561175e565b8280016001018555821561175e57600052602060002091601f016020900482015b8281111561175d578254825591600101919060010190611742565b5b50905061176b9190611833565b5090565b50805461177b90611e8d565b6000825580601f1061178d57506117ac565b601f0160209004906000526020600020908101906117ab9190611833565b5b50565b6040518060c00160405280600073ffffffffffffffffffffffffffffffffffffffff168152602001606081526020016060815260200160608152602001606081526020016000600381111561182d577f4e487b7100000000000000000000000000000000000000000000000000000000600052602160045260246000fd5b81525090565b5b8082111561184c576000816000905550600101611834565b5090565b600061186361185e84611d08565b611cd7565b90508281526020810184848401111561187b57600080fd5b611886848285611e4b565b509392505050565b60008135905061189d81611fe9565b92915050565b6000813590506118b281612000565b92915050565b600082601f8301126118c957600080fd5b81356118d9848260208601611850565b91505092915050565b6000813590506118f181612010565b92915050565b60008151905061190681612010565b92915050565b600080600080600060a0868803121561192457600080fd5b600086013567ffffffffffffffff81111561193e57600080fd5b61194a888289016118b8565b955050602086013567ffffffffffffffff81111561196757600080fd5b611973888289016118b8565b945050604086013567ffffffffffffffff81111561199057600080fd5b61199c888289016118b8565b935050606086013567ffffffffffffffff8111156119b957600080fd5b6119c5888289016118b8565b92505060806119d6888289016118a3565b9150509295509295909350565b6000602082840312156119f557600080fd5b6000611a03848285016118e2565b91505092915050565b600060208284031215611a1e57600080fd5b6000611a2c848285016118f7565b91505092915050565b600080600060608486031215611a4a57600080fd5b6000611a58868287016118e2565b9350506020611a698682870161188e565b925050604084013567ffffffffffffffff811115611a8657600080fd5b611a92868287016118b8565b9150509250925092565b611aa581611dde565b82525050565b611ab481611df0565b82525050565b611ac381611e39565b82525050565b6000611ad482611d38565b611ade8185611d43565b9350611aee818560208601611e5a565b611af781611fc4565b840191505092915050565b6000611b0f601183611d43565b91507f596f7520617265206e6f74204f776e65720000000000000000000000000000006000830152602082019050919050565b6000602082019050611b576000830184611a9c565b92915050565b6000604082019050611b726000830185611a9c565b8181036020830152611b848184611ac9565b90509392505050565b600060c082019050611ba26000830189611a9c565b8181036020830152611bb48188611ac9565b90508181036040830152611bc88187611ac9565b90508181036060830152611bdc8186611ac9565b90508181036080830152611bf08185611ac9565b9050611bff60a0830184611aba565b979650505050505050565b600060e082019050611c1f600083018a611a9c565b8181036020830152611c318189611ac9565b90508181036040830152611c458188611ac9565b90508181036060830152611c598187611ac9565b90508181036080830152611c6d8186611ac9565b9050611c7c60a0830185611aba565b611c8960c0830184611aab565b98975050505050505050565b60006020820190508181036000830152611caf8184611ac9565b905092915050565b60006020820190508181036000830152611cd081611b02565b9050919050565b6000604051905081810181811067ffffffffffffffff82111715611cfe57611cfd611f95565b5b8060405250919050565b600067ffffffffffffffff821115611d2357611d22611f95565b5b601f19601f8301169050602081019050919050565b600081519050919050565b600082825260208201905092915050565b6000611d5f82611e2f565b9150611d6a83611e2f565b9250827fffffffffffffffffffffffffffffffffffffffffffffffffffffffffffffffff03821115611d9f57611d9e611f08565b5b828201905092915050565b6000611db582611e2f565b9150611dc083611e2f565b925082821015611dd357611dd2611f08565b5b828203905092915050565b6000611de982611e0f565b9050919050565b60008115159050919050565b6000819050611e0a82611fd5565b919050565b600073ffffffffffffffffffffffffffffffffffffffff82169050919050565b6000819050919050565b6000611e4482611dfc565b9050919050565b82818337600083830152505050565b60005b83811015611e78578082015181840152602081019050611e5d565b83811115611e87576000848401525b50505050565b60006002820490506001821680611ea557607f821691505b60208210811415611eb957611eb8611f66565b5b50919050565b6000611eca82611e2f565b91507fffffffffffffffffffffffffffffffffffffffffffffffffffffffffffffffff821415611efd57611efc611f08565b5b600182019050919050565b7f4e487b7100000000000000000000000000000000000000000000000000000000600052601160045260246000fd5b7f4e487b7100000000000000000000000000000000000000000000000000000000600052602160045260246000fd5b7f4e487b7100000000000000000000000000000000000000000000000000000000600052602260045260246000fd5b7f4e487b7100000000000000000000000000000000000000000000000000000000600052604160045260246000fd5b6000601f19601f8301169050919050565b60048110611fe657611fe5611f37565b5b50565b611ff281611df0565b8114611ffd57600080fd5b50565b6004811061200d57600080fd5b50565b61201981611e2f565b811461202457600080fd5b5056fe526571756573742074656c61682064697375626d69742c2073696c61686b616e206d656e756e67677520617070726f76616c20646172692041646d696ea2646970667358221220fc19e9aa3b6ed7ead035f58af7d2585b5a20c8d68fc83a061cbf1c595cd55e6f64736f6c63430008000033",
  "linkReferences": {},
  "deployedLinkReferences": {}
}