{
  "_format": "hh-sol-artifact-1",
  "contractName": "SKKMService",
  "sourceName": "contracts/SKKMService.sol",
  "abi": [
    {
      "inputs": [
        {
          "internalType": "address",
          "name": "_nftAddress",
          "type": "address"
        }
      ],
      "stateMutability": "nonpayable",
      "type": "constructor"
    },
    {
      "inputs": [
        {
          "internalType": "uint256",
          "name": "",
          "type": "uint256"
        }
      ],
      "name": "SKKM_requests_history",
      "outputs": [
        {
          "internalType": "address",
          "name": "studentAddress",
          "type": "address"
        },
        {
          "internalType": "string",
          "name": "studentName",
          "type": "string"
        },
        {
          "internalType": "string",
          "name": "NIM",
          "type": "string"
        },
        {
          "internalType": "string",
          "name": "namaKegiatan",
          "type": "string"
        },
        {
          "internalType": "string",
          "name": "deskripsiKegiatan",
          "type": "string"
        },
        {
          "internalType": "enum SKKMService.SKKM",
          "name": "jenisSKKM",
          "type": "uint8"
        },
        {
          "internalType": "bool",
          "name": "approved",
          "type": "bool"
        }
      ],
      "stateMutability": "view",
      "type": "function"
    },
    {
      "inputs": [
        {
          "internalType": "uint256",
          "name": "",
          "type": "uint256"
        }
      ],
      "name": "SKKM_requests_list",
      "outputs": [
        {
          "internalType": "address",
          "name": "studentAddress",
          "type": "address"
        },
        {
          "internalType": "string",
          "name": "studentName",
          "type": "string"
        },
        {
          "internalType": "string",
          "name": "NIM",
          "type": "string"
        },
        {
          "internalType": "string",
          "name": "namaKegiatan",
          "type": "string"
        },
        {
          "internalType": "string",
          "name": "deskripsiKegiatan",
          "type": "string"
        },
        {
          "internalType": "enum SKKMService.SKKM",
          "name": "jenisSKKM",
          "type": "uint8"
        }
      ],
      "stateMutability": "view",
      "type": "function"
    },
    {
      "inputs": [
        {
          "internalType": "uint256",
          "name": "_index",
          "type": "uint256"
        },
        {
          "internalType": "bool",
          "name": "_approved",
          "type": "bool"
        },
        {
          "internalType": "string",
          "name": "_metadataURL",
          "type": "string"
        }
      ],
      "name": "approveSKKM",
      "outputs": [],
      "stateMutability": "nonpayable",
      "type": "function"
    },
    {
      "inputs": [],
      "name": "getHistoryLength",
      "outputs": [
        {
          "internalType": "uint256",
          "name": "",
          "type": "uint256"
        }
      ],
      "stateMutability": "view",
      "type": "function"
    },
    {
      "inputs": [],
      "name": "getListLength",
      "outputs": [
        {
          "internalType": "uint256",
          "name": "",
          "type": "uint256"
        }
      ],
      "stateMutability": "view",
      "type": "function"
    },
    {
      "inputs": [],
      "name": "metadataURL",
      "outputs": [
        {
          "internalType": "string",
          "name": "",
          "type": "string"
        }
      ],
      "stateMutability": "view",
      "type": "function"
    },
    {
      "inputs": [],
      "name": "nftAddress",
      "outputs": [
        {
          "internalType": "address",
          "name": "",
          "type": "address"
        }
      ],
      "stateMutability": "view",
      "type": "function"
    },
    {
      "inputs": [],
      "name": "owner",
      "outputs": [
        {
          "internalType": "address",
          "name": "",
          "type": "address"
        }
      ],
      "stateMutability": "view",
      "type": "function"
    },
    {
      "inputs": [
        {
          "internalType": "string",
          "name": "_studentName",
          "type": "string"
        },
        {
          "internalType": "string",
          "name": "_NIM",
          "type": "string"
        },
        {
          "internalType": "string",
          "name": "_namaKegiatan",
          "type": "string"
        },
        {
          "internalType": "string",
          "name": "_deskripsiKegiatan",
          "type": "string"
        },
        {
          "internalType": "enum SKKMService.SKKM",
          "name": "_jenisSKKM",
          "type": "uint8"
        }
      ],
      "name": "requestSKKM",
      "outputs": [
        {
          "internalType": "string",
          "name": "message",
          "type": "string"
        }
      ],
      "stateMutability": "nonpayable",
      "type": "function"
    }
  ],
  "bytecode": "0x60806040523480156200001157600080fd5b5060405162002290380380620022908339818101604052810190620000379190620000d6565b336000806101000a81548173ffffffffffffffffffffffffffffffffffffffff021916908373ffffffffffffffffffffffffffffffffffffffff16021790555080600160006101000a81548173ffffffffffffffffffffffffffffffffffffffff021916908373ffffffffffffffffffffffffffffffffffffffff1602179055505062000150565b600081519050620000d08162000136565b92915050565b600060208284031215620000e957600080fd5b6000620000f984828501620000bf565b91505092915050565b60006200010f8262000116565b9050919050565b600073ffffffffffffffffffffffffffffffffffffffff82169050919050565b620001418162000102565b81146200014d57600080fd5b50565b61213080620001606000396000f3fe608060405234801561001057600080fd5b50600436106100935760003560e01c80635bf8633a116100665780635bf8633a146101255780638da5cb5b14610143578063b65c531b14610161578063c42616a51461017f578063eb30cdf5146101b557610093565b80630eefa83c146100985780632dcc8c66146100b45780635478f468146100d257806359c4219e146100f0575b600080fd5b6100b260048036038101906100ad9190611aa1565b6101e5565b005b6100bc610dbe565b6040516100c99190611d10565b60405180910390f35b6100da610e4c565b6040516100e79190611d52565b60405180910390f35b61010a60048036038101906101059190611a4f565b610e59565b60405161011c96959493929190611c08565b60405180910390f35b61012d6110f2565b60405161013a9190611bbd565b60405180910390f35b61014b611118565b6040516101589190611bbd565b60405180910390f35b61016961113c565b6040516101769190611d52565b60405180910390f35b61019960048036038101906101949190611a4f565b611149565b6040516101ac9796959493929190611c85565b60405180910390f35b6101cf60048036038101906101ca9190611978565b6113f5565b6040516101dc9190611d10565b60405180910390f35b60008054906101000a900473ffffffffffffffffffffffffffffffffffffffff1673ffffffffffffffffffffffffffffffffffffffff163373ffffffffffffffffffffffffffffffffffffffff1614610273576040517f08c379a000000000000000000000000000000000000000000000000000000000815260040161026a90611d32565b60405180910390fd5b6000600160009054906101000a900473ffffffffffffffffffffffffffffffffffffffff1690506102a261163b565b600385815481106102dc577f4e487b7100000000000000000000000000000000000000000000000000000000600052603260045260246000fd5b906000526020600020906006020160000160009054906101000a900473ffffffffffffffffffffffffffffffffffffffff16816000019073ffffffffffffffffffffffffffffffffffffffff16908173ffffffffffffffffffffffffffffffffffffffff16815250506003858154811061037f577f4e487b7100000000000000000000000000000000000000000000000000000000600052603260045260246000fd5b9060005260206000209060060201600101805461039b90611f23565b80601f01602080910402602001604051908101604052809291908181526020018280546103c790611f23565b80156104145780601f106103e957610100808354040283529160200191610414565b820191906000526020600020905b8154815290600101906020018083116103f757829003601f168201915b505050505081602001819052506003858154811061045b577f4e487b7100000000000000000000000000000000000000000000000000000000600052603260045260246000fd5b9060005260206000209060060201600201805461047790611f23565b80601f01602080910402602001604051908101604052809291908181526020018280546104a390611f23565b80156104f05780601f106104c5576101008083540402835291602001916104f0565b820191906000526020600020905b8154815290600101906020018083116104d357829003601f168201915b5050505050816040018190525060038581548110610537577f4e487b7100000000000000000000000000000000000000000000000000000000600052603260045260246000fd5b9060005260206000209060060201600301805461055390611f23565b80601f016020809104026020016040519081016040528092919081815260200182805461057f90611f23565b80156105cc5780601f106105a1576101008083540402835291602001916105cc565b820191906000526020600020905b8154815290600101906020018083116105af57829003601f168201915b5050505050816060018190525060038581548110610613577f4e487b7100000000000000000000000000000000000000000000000000000000600052603260045260246000fd5b9060005260206000209060060201600401805461062f90611f23565b80601f016020809104026020016040519081016040528092919081815260200182805461065b90611f23565b80156106a85780601f1061067d576101008083540402835291602001916106a8565b820191906000526020600020905b81548152906001019060200180831161068b57829003601f168201915b50505050508160800181905250600385815481106106ef577f4e487b7100000000000000000000000000000000000000000000000000000000600052603260045260246000fd5b906000526020600020906006020160050160009054906101000a900460ff168160a00190600381111561074b577f4e487b7100000000000000000000000000000000000000000000000000000000600052602160045260246000fd5b90816003811115610785577f4e487b7100000000000000000000000000000000000000000000000000000000600052602160045260246000fd5b81525050838160c0019015159081151581525050600481908060018154018082558091505060019003906000526020600020906006020160009091909190915060008201518160000160006101000a81548173ffffffffffffffffffffffffffffffffffffffff021916908373ffffffffffffffffffffffffffffffffffffffff16021790555060208201518160010190805190602001906108289291906116c8565b5060408201518160020190805190602001906108459291906116c8565b5060608201518160030190805190602001906108629291906116c8565b50608082015181600401908051906020019061087f9291906116c8565b5060a08201518160050160006101000a81548160ff021916908360038111156108d1577f4e487b7100000000000000000000000000000000000000000000000000000000600052602160045260246000fd5b021790555060c08201518160050160016101000a81548160ff021916908315150217905550505083156109f8578173ffffffffffffffffffffffffffffffffffffffff1663eacabe1460038781548110610954577f4e487b7100000000000000000000000000000000000000000000000000000000600052603260045260246000fd5b906000526020600020906006020160000160009054906101000a900473ffffffffffffffffffffffffffffffffffffffff16856040518363ffffffff1660e01b81526004016109a4929190611bd8565b602060405180830381600087803b1580156109be57600080fd5b505af11580156109d2573d6000803e3d6000fd5b505050506040513d601f19601f820116820180604052508101906109f69190611a78565b505b60008590505b6001600380549050610a109190611e40565b811015610c13576003600182610a269190611dea565b81548110610a5d577f4e487b7100000000000000000000000000000000000000000000000000000000600052603260045260246000fd5b906000526020600020906006020160038281548110610aa5577f4e487b7100000000000000000000000000000000000000000000000000000000600052603260045260246000fd5b90600052602060002090600602016000820160009054906101000a900473ffffffffffffffffffffffffffffffffffffffff168160000160006101000a81548173ffffffffffffffffffffffffffffffffffffffff021916908373ffffffffffffffffffffffffffffffffffffffff1602179055506001820181600101908054610b2e90611f23565b610b3992919061174e565b506002820181600201908054610b4e90611f23565b610b5992919061174e565b506003820181600301908054610b6e90611f23565b610b7992919061174e565b506004820181600401908054610b8e90611f23565b610b9992919061174e565b506005820160009054906101000a900460ff168160050160006101000a81548160ff02191690836003811115610bf8577f4e487b7100000000000000000000000000000000000000000000000000000000600052602160045260246000fd5b02179055509050508080610c0b90611f55565b9150506109fe565b5060036001600380549050610c289190611e40565b81548110610c5f577f4e487b7100000000000000000000000000000000000000000000000000000000600052603260045260246000fd5b9060005260206000209060060201600080820160006101000a81549073ffffffffffffffffffffffffffffffffffffffff0219169055600182016000610ca591906117db565b600282016000610cb591906117db565b600382016000610cc591906117db565b600482016000610cd591906117db565b6005820160006101000a81549060ff021916905550506003805480610d23577f4e487b7100000000000000000000000000000000000000000000000000000000600052603160045260246000fd5b6001900381819060005260206000209060060201600080820160006101000a81549073ffffffffffffffffffffffffffffffffffffffff0219169055600182016000610d6f91906117db565b600282016000610d7f91906117db565b600382016000610d8f91906117db565b600482016000610d9f91906117db565b6005820160006101000a81549060ff0219169055505090555050505050565b60028054610dcb90611f23565b80601f0160208091040260200160405190810160405280929190818152602001828054610df790611f23565b8015610e445780601f10610e1957610100808354040283529160200191610e44565b820191906000526020600020905b815481529060010190602001808311610e2757829003601f168201915b505050505081565b6000600480549050905090565b60038181548110610e6957600080fd5b90600052602060002090600602016000915090508060000160009054906101000a900473ffffffffffffffffffffffffffffffffffffffff1690806001018054610eb290611f23565b80601f0160208091040260200160405190810160405280929190818152602001828054610ede90611f23565b8015610f2b5780601f10610f0057610100808354040283529160200191610f2b565b820191906000526020600020905b815481529060010190602001808311610f0e57829003601f168201915b505050505090806002018054610f4090611f23565b80601f0160208091040260200160405190810160405280929190818152602001828054610f6c90611f23565b8015610fb95780601f10610f8e57610100808354040283529160200191610fb9565b820191906000526020600020905b815481529060010190602001808311610f9c57829003601f168201915b505050505090806003018054610fce90611f23565b80601f0160208091040260200160405190810160405280929190818152602001828054610ffa90611f23565b80156110475780601f1061101c57610100808354040283529160200191611047565b820191906000526020600020905b81548152906001019060200180831161102a57829003601f168201915b50505050509080600401805461105c90611f23565b80601f016020809104026020016040519081016040528092919081815260200182805461108890611f23565b80156110d55780601f106110aa576101008083540402835291602001916110d5565b820191906000526020600020905b8154815290600101906020018083116110b857829003601f168201915b5050505050908060050160009054906101000a900460ff16905086565b600160009054906101000a900473ffffffffffffffffffffffffffffffffffffffff1681565b60008054906101000a900473ffffffffffffffffffffffffffffffffffffffff1681565b6000600380549050905090565b6004818154811061115957600080fd5b90600052602060002090600602016000915090508060000160009054906101000a900473ffffffffffffffffffffffffffffffffffffffff16908060010180546111a290611f23565b80601f01602080910402602001604051908101604052809291908181526020018280546111ce90611f23565b801561121b5780601f106111f05761010080835404028352916020019161121b565b820191906000526020600020905b8154815290600101906020018083116111fe57829003601f168201915b50505050509080600201805461123090611f23565b80601f016020809104026020016040519081016040528092919081815260200182805461125c90611f23565b80156112a95780601f1061127e576101008083540402835291602001916112a9565b820191906000526020600020905b81548152906001019060200180831161128c57829003601f168201915b5050505050908060030180546112be90611f23565b80601f01602080910402602001604051908101604052809291908181526020018280546112ea90611f23565b80156113375780601f1061130c57610100808354040283529160200191611337565b820191906000526020600020905b81548152906001019060200180831161131a57829003601f168201915b50505050509080600401805461134c90611f23565b80601f016020809104026020016040519081016040528092919081815260200182805461137890611f23565b80156113c55780601f1061139a576101008083540402835291602001916113c5565b820191906000526020600020905b8154815290600101906020018083116113a857829003601f168201915b5050505050908060050160009054906101000a900460ff16908060050160019054906101000a900460ff16905087565b60606113ff61181b565b33816000019073ffffffffffffffffffffffffffffffffffffffff16908173ffffffffffffffffffffffffffffffffffffffff1681525050868160200181905250858160400181905250848160600181905250838160800181905250828160a001906003811115611499577f4e487b7100000000000000000000000000000000000000000000000000000000600052602160045260246000fd5b908160038111156114d3577f4e487b7100000000000000000000000000000000000000000000000000000000600052602160045260246000fd5b81525050600381908060018154018082558091505060019003906000526020600020906006020160009091909190915060008201518160000160006101000a81548173ffffffffffffffffffffffffffffffffffffffff021916908373ffffffffffffffffffffffffffffffffffffffff16021790555060208201518160010190805190602001906115669291906116c8565b5060408201518160020190805190602001906115839291906116c8565b5060608201518160030190805190602001906115a09291906116c8565b5060808201518160040190805190602001906115bd9291906116c8565b5060a08201518160050160006101000a81548160ff0219169083600381111561160f577f4e487b7100000000000000000000000000000000000000000000000000000000600052602160045260246000fd5b021790555050506040518060600160405280603d81526020016120be603d913991505095945050505050565b6040518060e00160405280600073ffffffffffffffffffffffffffffffffffffffff16815260200160608152602001606081526020016060815260200160608152602001600060038111156116b9577f4e487b7100000000000000000000000000000000000000000000000000000000600052602160045260246000fd5b81526020016000151581525090565b8280546116d490611f23565b90600052602060002090601f0160209004810192826116f6576000855561173d565b82601f1061170f57805160ff191683800117855561173d565b8280016001018555821561173d579182015b8281111561173c578251825591602001919060010190611721565b5b50905061174a919061189f565b5090565b82805461175a90611f23565b90600052602060002090601f01602090048101928261177c57600085556117ca565b82601f1061178d57805485556117ca565b828001600101855582156117ca57600052602060002091601f016020900482015b828111156117c95782548255916001019190600101906117ae565b5b5090506117d7919061189f565b5090565b5080546117e790611f23565b6000825580601f106117f95750611818565b601f016020900490600052602060002090810190611817919061189f565b5b50565b6040518060c00160405280600073ffffffffffffffffffffffffffffffffffffffff1681526020016060815260200160608152602001606081526020016060815260200160006003811115611899577f4e487b7100000000000000000000000000000000000000000000000000000000600052602160045260246000fd5b81525090565b5b808211156118b85760008160009055506001016118a0565b5090565b60006118cf6118ca84611d9e565b611d6d565b9050828152602081018484840111156118e757600080fd5b6118f2848285611ee1565b509392505050565b6000813590506119098161207f565b92915050565b60008135905061191e81612096565b92915050565b600082601f83011261193557600080fd5b81356119458482602086016118bc565b91505092915050565b60008135905061195d816120a6565b92915050565b600081519050611972816120a6565b92915050565b600080600080600060a0868803121561199057600080fd5b600086013567ffffffffffffffff8111156119aa57600080fd5b6119b688828901611924565b955050602086013567ffffffffffffffff8111156119d357600080fd5b6119df88828901611924565b945050604086013567ffffffffffffffff8111156119fc57600080fd5b611a0888828901611924565b935050606086013567ffffffffffffffff811115611a2557600080fd5b611a3188828901611924565b9250506080611a428882890161190f565b9150509295509295909350565b600060208284031215611a6157600080fd5b6000611a6f8482850161194e565b91505092915050565b600060208284031215611a8a57600080fd5b6000611a9884828501611963565b91505092915050565b600080600060608486031215611ab657600080fd5b6000611ac48682870161194e565b9350506020611ad5868287016118fa565b925050604084013567ffffffffffffffff811115611af257600080fd5b611afe86828701611924565b9150509250925092565b611b1181611e74565b82525050565b611b2081611e86565b82525050565b611b2f81611ecf565b82525050565b6000611b4082611dce565b611b4a8185611dd9565b9350611b5a818560208601611ef0565b611b638161205a565b840191505092915050565b6000611b7b601183611dd9565b91507f596f7520617265206e6f74204f776e65720000000000000000000000000000006000830152602082019050919050565b611bb781611ec5565b82525050565b6000602082019050611bd26000830184611b08565b92915050565b6000604082019050611bed6000830185611b08565b8181036020830152611bff8184611b35565b90509392505050565b600060c082019050611c1d6000830189611b08565b8181036020830152611c2f8188611b35565b90508181036040830152611c438187611b35565b90508181036060830152611c578186611b35565b90508181036080830152611c6b8185611b35565b9050611c7a60a0830184611b26565b979650505050505050565b600060e082019050611c9a600083018a611b08565b8181036020830152611cac8189611b35565b90508181036040830152611cc08188611b35565b90508181036060830152611cd48187611b35565b90508181036080830152611ce88186611b35565b9050611cf760a0830185611b26565b611d0460c0830184611b17565b98975050505050505050565b60006020820190508181036000830152611d2a8184611b35565b905092915050565b60006020820190508181036000830152611d4b81611b6e565b9050919050565b6000602082019050611d676000830184611bae565b92915050565b6000604051905081810181811067ffffffffffffffff82111715611d9457611d9361202b565b5b8060405250919050565b600067ffffffffffffffff821115611db957611db861202b565b5b601f19601f8301169050602081019050919050565b600081519050919050565b600082825260208201905092915050565b6000611df582611ec5565b9150611e0083611ec5565b9250827fffffffffffffffffffffffffffffffffffffffffffffffffffffffffffffffff03821115611e3557611e34611f9e565b5b828201905092915050565b6000611e4b82611ec5565b9150611e5683611ec5565b925082821015611e6957611e68611f9e565b5b828203905092915050565b6000611e7f82611ea5565b9050919050565b60008115159050919050565b6000819050611ea08261206b565b919050565b600073ffffffffffffffffffffffffffffffffffffffff82169050919050565b6000819050919050565b6000611eda82611e92565b9050919050565b82818337600083830152505050565b60005b83811015611f0e578082015181840152602081019050611ef3565b83811115611f1d576000848401525b50505050565b60006002820490506001821680611f3b57607f821691505b60208210811415611f4f57611f4e611ffc565b5b50919050565b6000611f6082611ec5565b91507fffffffffffffffffffffffffffffffffffffffffffffffffffffffffffffffff821415611f9357611f92611f9e565b5b600182019050919050565b7f4e487b7100000000000000000000000000000000000000000000000000000000600052601160045260246000fd5b7f4e487b7100000000000000000000000000000000000000000000000000000000600052602160045260246000fd5b7f4e487b7100000000000000000000000000000000000000000000000000000000600052602260045260246000fd5b7f4e487b7100000000000000000000000000000000000000000000000000000000600052604160045260246000fd5b6000601f19601f8301169050919050565b6004811061207c5761207b611fcd565b5b50565b61208881611e86565b811461209357600080fd5b50565b600481106120a357600080fd5b50565b6120af81611ec5565b81146120ba57600080fd5b5056fe526571756573742074656c61682064697375626d69742c2073696c61686b616e206d656e756e67677520617070726f76616c20646172692041646d696ea2646970667358221220eac151cff9390401e88cccb6e6b0371c195fa040394baceecd145f649c5ba32464736f6c63430008000033",
  "linkReferences": {},
  "deployedLinkReferences": {}
}